{
  "contractName": "Hospitals",
  "abi": [
    {
      "anonymous": false,
      "inputs": [
        {
          "indexed": false,
          "internalType": "uint256",
          "name": "bedId",
          "type": "uint256"
        }
      ],
      "name": "NewBedBooking",
      "type": "event"
    },
    {
      "anonymous": false,
      "inputs": [
        {
          "indexed": false,
          "internalType": "uint256",
          "name": "hospitalId",
          "type": "uint256"
        },
        {
          "indexed": false,
          "internalType": "string",
          "name": "name",
          "type": "string"
        },
        {
          "indexed": false,
          "internalType": "string",
          "name": "city",
          "type": "string"
        },
        {
          "indexed": false,
          "internalType": "uint256",
          "name": "noOfBeds",
          "type": "uint256"
        },
        {
          "indexed": false,
          "internalType": "bool",
          "name": "isPrivate",
          "type": "bool"
        }
      ],
      "name": "NewHospital",
      "type": "event"
    },
    {
      "constant": true,
      "inputs": [
        {
          "internalType": "uint256",
          "name": "",
          "type": "uint256"
        }
      ],
      "name": "bookedBeds",
      "outputs": [
        {
          "internalType": "uint256",
          "name": "bedId",
          "type": "uint256"
        },
        {
          "internalType": "uint256",
          "name": "hospitalId",
          "type": "uint256"
        },
        {
          "internalType": "address",
          "name": "name",
          "type": "address"
        }
      ],
      "payable": false,
      "stateMutability": "view",
      "type": "function"
    },
    {
      "constant": true,
      "inputs": [
        {
          "internalType": "uint256",
          "name": "",
          "type": "uint256"
        }
      ],
      "name": "hospitals",
      "outputs": [
        {
          "internalType": "string",
          "name": "name",
          "type": "string"
        },
        {
          "internalType": "string",
          "name": "city",
          "type": "string"
        },
        {
          "internalType": "uint256",
          "name": "noOfBeds",
          "type": "uint256"
        },
        {
          "internalType": "bool",
          "name": "isPrivate",
          "type": "bool"
        },
        {
          "internalType": "uint256",
          "name": "bedPrice",
          "type": "uint256"
        },
        {
          "internalType": "uint256",
          "name": "bedAvailable",
          "type": "uint256"
        }
      ],
      "payable": false,
      "stateMutability": "view",
      "type": "function"
    },
    {
      "constant": false,
      "inputs": [
        {
          "internalType": "string",
          "name": "_name",
          "type": "string"
        },
        {
          "internalType": "string",
          "name": "_city",
          "type": "string"
        },
        {
          "internalType": "uint256",
          "name": "_noOfBeds",
          "type": "uint256"
        },
        {
          "internalType": "bool",
          "name": "_isPrivate",
          "type": "bool"
        },
        {
          "internalType": "uint256",
          "name": "_bedPrice",
          "type": "uint256"
        }
      ],
      "name": "_addHospital",
      "outputs": [],
      "payable": false,
      "stateMutability": "nonpayable",
      "type": "function"
    },
    {
      "constant": false,
      "inputs": [
        {
          "internalType": "uint256",
          "name": "_hospitalId",
          "type": "uint256"
        }
      ],
      "name": "_bookOneBed",
      "outputs": [],
      "payable": false,
      "stateMutability": "nonpayable",
      "type": "function"
    },
    {
      "constant": false,
      "inputs": [
        {
          "internalType": "uint256",
          "name": "_hospitalId",
          "type": "uint256"
        },
        {
          "internalType": "uint256",
          "name": "_bedId",
          "type": "uint256"
        }
      ],
      "name": "_freeBed",
      "outputs": [],
      "payable": false,
      "stateMutability": "nonpayable",
      "type": "function"
    }
  ],
  "bytecode": "0x608060405234801561001057600080fd5b50610c46806100206000396000f3fe608060405234801561001057600080fd5b50600436106100575760003560e01c80630e4e79ea1461005c57806354c47bcc146101ce5780635c8ce40c1461020657806381dc6fd214610234578063c507842014610367575b600080fd5b6101cc600480360360a081101561007257600080fd5b810190808035906020019064010000000081111561008f57600080fd5b8201836020820111156100a157600080fd5b803590602001918460018302840111640100000000831117156100c357600080fd5b91908080601f016020809104026020016040519081016040528093929190818152602001838380828437600081840152601f19601f8201169050808301925050505050505091929192908035906020019064010000000081111561012657600080fd5b82018360208201111561013857600080fd5b8035906020019184600183028401116401000000008311171561015a57600080fd5b91908080601f016020809104026020016040519081016040528093929190818152602001838380828437600081840152601f19601f82011690508083019250505050505050919291929080359060200190929190803515159060200190929190803590602001909291905050506103e3565b005b610204600480360360408110156101e457600080fd5b81019080803590602001909291908035906020019092919050505061063d565b005b6102326004803603602081101561021c57600080fd5b81019080803590602001909291905050506107c7565b005b6102606004803603602081101561024a57600080fd5b8101908080359060200190929190505050610971565b60405180806020018060200187815260200186151515158152602001858152602001848152602001838103835289818151815260200191508051906020019080838360005b838110156102c05780820151818401526020810190506102a5565b50505050905090810190601f1680156102ed5780820380516001836020036101000a031916815260200191505b50838103825288818151815260200191508051906020019080838360005b8381101561032657808201518184015260208101905061030b565b50505050905090810190601f1680156103535780820380516001836020036101000a031916815260200191505b509850505050505050505060405180910390f35b6103936004803603602081101561037d57600080fd5b8101908080359060200190929190505050610aea565b604051808481526020018381526020018273ffffffffffffffffffffffffffffffffffffffff1673ffffffffffffffffffffffffffffffffffffffff168152602001935050505060405180910390f35b6103eb610b34565b6040518060c0016040528087815260200186815260200185815260200184151581526020018381526020018581525090503360046000600254815260200190815260200160002060006101000a81548173ffffffffffffffffffffffffffffffffffffffff021916908373ffffffffffffffffffffffffffffffffffffffff16021790555080600080600254815260200190815260200160002060008201518160000190805190602001906104a1929190610b6c565b5060208201518160010190805190602001906104be929190610b6c565b506040820151816002015560608201518160030160006101000a81548160ff0219169083151502179055506080820151816004015560a082015181600501559050507f54c764eb2ea341c17404d52efae99bdb505bc5debf543017296cab3a398d15ba60026000815480929190600101919050558787878760405180868152602001806020018060200185815260200184151515158152602001838103835287818151815260200191508051906020019080838360005b83811015610590578082015181840152602081019050610575565b50505050905090810190601f1680156105bd5780820380516001836020036101000a031916815260200191505b50838103825286818151815260200191508051906020019080838360005b838110156105f65780820151818401526020810190506105db565b50505050905090810190601f1680156106235780820380516001836020036101000a031916815260200191505b5097505050505050505060405180910390a1505050505050565b60006001600083815260200190815260200160002090503373ffffffffffffffffffffffffffffffffffffffff168160020160009054906101000a900473ffffffffffffffffffffffffffffffffffffffff1673ffffffffffffffffffffffffffffffffffffffff1614610719576040517f08c379a00000000000000000000000000000000000000000000000000000000081526004018080602001828103825260178152602001807f4e6f742062656420626f6f6b6564206279206f776e657200000000000000000081525060200191505060405180910390fd5b600080600085815260200190815260200160002090508060020154816005015411156107ad576040517f08c379a00000000000000000000000000000000000000000000000000000000081526004018080602001828103825260118152602001807f416c6c206265647320617265206672656500000000000000000000000000000081525060200191505060405180910390fd5b806005016000815480929190600101919050555050505050565b60008060008381526020019081526020016000209050600081600501541180156107f957508060020154816005015411155b61086b576040517f08c379a00000000000000000000000000000000000000000000000000000000081526004018080602001828103825260118152602001807f626564206e6f7420617661696c61626c6500000000000000000000000000000081525060200191505060405180910390fd5b806005016000815480929190600190039190505550604051806060016040528060035481526020018381526020013373ffffffffffffffffffffffffffffffffffffffff16815250600160006003548152602001908152602001600020600082015181600001556020820151816001015560408201518160020160006101000a81548173ffffffffffffffffffffffffffffffffffffffff021916908373ffffffffffffffffffffffffffffffffffffffff1602179055509050507f1fbc0da5d4e09ae1e0045316aa3cb0e972ba1dcff4413fe031a617a580a31a1c60036000815480929190600101919050556040518082815260200191505060405180910390a15050565b6000602052806000526040600020600091509050806000018054600181600116156101000203166002900480601f016020809104026020016040519081016040528092919081815260200182805460018160011615610100020316600290048015610a1d5780601f106109f257610100808354040283529160200191610a1d565b820191906000526020600020905b815481529060010190602001808311610a0057829003601f168201915b505050505090806001018054600181600116156101000203166002900480601f016020809104026020016040519081016040528092919081815260200182805460018160011615610100020316600290048015610abb5780601f10610a9057610100808354040283529160200191610abb565b820191906000526020600020905b815481529060010190602001808311610a9e57829003601f168201915b5050505050908060020154908060030160009054906101000a900460ff16908060040154908060050154905086565b60016020528060005260406000206000915090508060000154908060010154908060020160009054906101000a900473ffffffffffffffffffffffffffffffffffffffff16905083565b6040518060c0016040528060608152602001606081526020016000815260200160001515815260200160008152602001600081525090565b828054600181600116156101000203166002900490600052602060002090601f016020900481019282601f10610bad57805160ff1916838001178555610bdb565b82800160010185558215610bdb579182015b82811115610bda578251825591602001919060010190610bbf565b5b509050610be89190610bec565b5090565b610c0e91905b80821115610c0a576000816000905550600101610bf2565b5090565b9056fea265627a7a72315820a90b98dbea9a1c1e97cfd9aa81f0d0756f248d3361f83eeb5b0085877c2d4b9d64736f6c63430005100032",
  "source": "pragma solidity >=0.5.0 <0.7.0;\n\ncontract Hospitals {\n    event NewHospital(\n        uint256 hospitalId,\n        string name,\n        string city,\n        uint256 noOfBeds,\n        bool isPrivate\n    );\n    event NewBedBooking(uint256 bedId);\n\n    struct Hospital {\n        string name;\n        string city;\n        uint256 noOfBeds;\n        bool isPrivate;\n        uint256 bedPrice;\n        uint bedAvailable;\n    }\n    struct Bed {\n        uint256 bedId; uint256 hospitalId; address name;\n    }\n\n    mapping(uint256 => Hospital) public hospitals;\n    mapping(uint256 => Bed) public bookedBeds;\n\n    uint256 hospitalId;\n    uint256 bedId;\n\n    // Hospital[] public hospitalsList;\n    mapping(uint => address) hospitalToOwner;\n\n    function _addHospital(\n        string memory _name,\n        string memory _city,\n        uint256 _noOfBeds,\n        bool _isPrivate,\n        uint _bedPrice\n    ) public {\n        Hospital memory hosp = Hospital(_name, _city, _noOfBeds, _isPrivate, _bedPrice, _noOfBeds);\n        hospitalToOwner[hospitalId] = msg.sender;\n        hospitals[hospitalId] = hosp;\n        emit NewHospital(hospitalId++, _name, _city, _noOfBeds, _isPrivate);\n    }\n    \n    function _bookOneBed(uint _hospitalId) public {\n        Hospital storage hosp = hospitals[_hospitalId];\n        require(hosp.bedAvailable > 0 && hosp.bedAvailable<=hosp.noOfBeds , \"bed not available\");\n        hosp.bedAvailable--;\n        bookedBeds[bedId] = Bed(bedId, _hospitalId, msg.sender);\n        emit NewBedBooking(bedId++);\n    }\n\n    function _freeBed(uint _hospitalId, uint _bedId ) public {\n        Bed storage bed = bookedBeds[_bedId];\n        require(bed.name ==msg.sender, \"Not bed booked by owner\");\n        Hospital storage hosp = hospitals[_hospitalId];\n        require(hosp.bedAvailable<=hosp.noOfBeds , \"All beds are free\");\n        hosp.bedAvailable++;\n    }\n}\n",
  "sourcePath": "/Users/sahil/sah2/book-a-bed-dapp/contracts/Hospitals.sol",
  "compiler": {
    "name": "solc",
    "version": "0.5.16+commit.9c3226ce.Emscripten.clang"
  },
  "schemaVersion": "3.2.0",
  "updatedAt": "2020-06-21T11:02:17.681Z",
  "networkType": "ethereum",
  "devdoc": {
    "methods": {}
  },
  "userdoc": {
    "methods": {}
  }
}