{
  "contractName": "Hospitals",
  "abi": [
    {
      "anonymous": false,
      "inputs": [
        {
          "indexed": false,
          "internalType": "uint256",
          "name": "bedId",
          "type": "uint256"
        },
        {
          "indexed": false,
          "internalType": "uint256",
          "name": "hospitalId",
          "type": "uint256"
        }
      ],
      "name": "NewBedBooking",
      "type": "event"
    },
    {
      "anonymous": false,
      "inputs": [
        {
          "indexed": false,
          "internalType": "uint256",
          "name": "hospitalId",
          "type": "uint256"
        },
        {
          "indexed": false,
          "internalType": "string",
          "name": "name",
          "type": "string"
        },
        {
          "indexed": false,
          "internalType": "string",
          "name": "city",
          "type": "string"
        },
        {
          "indexed": false,
          "internalType": "uint256",
          "name": "noOfBeds",
          "type": "uint256"
        },
        {
          "indexed": false,
          "internalType": "bool",
          "name": "isPrivate",
          "type": "bool"
        }
      ],
      "name": "NewHospital",
      "type": "event"
    },
    {
      "constant": true,
      "inputs": [],
      "name": "bedId",
      "outputs": [
        {
          "internalType": "uint256",
          "name": "",
          "type": "uint256"
        }
      ],
      "payable": false,
      "stateMutability": "view",
      "type": "function"
    },
    {
      "constant": true,
      "inputs": [
        {
          "internalType": "uint256",
          "name": "",
          "type": "uint256"
        }
      ],
      "name": "bedToHospital",
      "outputs": [
        {
          "internalType": "uint256",
          "name": "bedId",
          "type": "uint256"
        },
        {
          "internalType": "uint256",
          "name": "hospitalId",
          "type": "uint256"
        },
        {
          "internalType": "address",
          "name": "name",
          "type": "address"
        }
      ],
      "payable": false,
      "stateMutability": "view",
      "type": "function"
    },
    {
      "constant": true,
      "inputs": [
        {
          "internalType": "address",
          "name": "",
          "type": "address"
        }
      ],
      "name": "hospitalBedCount",
      "outputs": [
        {
          "internalType": "uint256",
          "name": "",
          "type": "uint256"
        }
      ],
      "payable": false,
      "stateMutability": "view",
      "type": "function"
    },
    {
      "constant": true,
      "inputs": [
        {
          "internalType": "uint256",
          "name": "",
          "type": "uint256"
        }
      ],
      "name": "hospitals",
      "outputs": [
        {
          "internalType": "string",
          "name": "name",
          "type": "string"
        },
        {
          "internalType": "string",
          "name": "city",
          "type": "string"
        },
        {
          "internalType": "uint256",
          "name": "noOfBeds",
          "type": "uint256"
        },
        {
          "internalType": "bool",
          "name": "isPrivate",
          "type": "bool"
        },
        {
          "internalType": "uint256",
          "name": "bedPrice",
          "type": "uint256"
        },
        {
          "internalType": "uint256",
          "name": "bedAvailable",
          "type": "uint256"
        }
      ],
      "payable": false,
      "stateMutability": "view",
      "type": "function"
    },
    {
      "constant": false,
      "inputs": [
        {
          "internalType": "string",
          "name": "_name",
          "type": "string"
        },
        {
          "internalType": "string",
          "name": "_city",
          "type": "string"
        },
        {
          "internalType": "uint256",
          "name": "_noOfBeds",
          "type": "uint256"
        },
        {
          "internalType": "bool",
          "name": "_isPrivate",
          "type": "bool"
        },
        {
          "internalType": "uint256",
          "name": "_bedPrice",
          "type": "uint256"
        }
      ],
      "name": "addHospital",
      "outputs": [],
      "payable": false,
      "stateMutability": "nonpayable",
      "type": "function"
    },
    {
      "constant": false,
      "inputs": [],
      "name": "getIds",
      "outputs": [
        {
          "internalType": "uint256",
          "name": "",
          "type": "uint256"
        }
      ],
      "payable": false,
      "stateMutability": "nonpayable",
      "type": "function"
    },
    {
      "constant": false,
      "inputs": [],
      "name": "myFunction",
      "outputs": [
        {
          "internalType": "string",
          "name": "myString",
          "type": "string"
        }
      ],
      "payable": false,
      "stateMutability": "nonpayable",
      "type": "function"
    },
    {
      "constant": false,
      "inputs": [
        {
          "internalType": "uint256",
          "name": "_hospitalId",
          "type": "uint256"
        }
      ],
      "name": "bookOneBed",
      "outputs": [],
      "payable": false,
      "stateMutability": "nonpayable",
      "type": "function"
    },
    {
      "constant": false,
      "inputs": [
        {
          "internalType": "uint256",
          "name": "_hospitalId",
          "type": "uint256"
        }
      ],
      "name": "freeBed",
      "outputs": [],
      "payable": false,
      "stateMutability": "nonpayable",
      "type": "function"
    }
  ],
  "bytecode": "0x608060405234801561001057600080fd5b50610c24806100206000396000f3fe608060405234801561001057600080fd5b50600436106100935760003560e01c80635e2abdfb116100665780635e2abdfb146101a857806381dc6fd2146101d6578063c3780a3a14610309578063c6637bf11461038c578063e0b70176146103ba57610093565b80630c13449e146100985780632b105663146100f0578063381fa3b01461010e5780633b600ff11461012c575b600080fd5b6100da600480360360208110156100ae57600080fd5b81019080803573ffffffffffffffffffffffffffffffffffffffff16906020019092919050505061052c565b6040518082815260200191505060405180910390f35b6100f8610544565b6040518082815260200191505060405180910390f35b61011661054e565b6040518082815260200191505060405180910390f35b6101586004803603602081101561014257600080fd5b8101908080359060200190929190505050610554565b604051808481526020018381526020018273ffffffffffffffffffffffffffffffffffffffff1673ffffffffffffffffffffffffffffffffffffffff168152602001935050505060405180910390f35b6101d4600480360360208110156101be57600080fd5b810190808035906020019092919050505061059e565b005b610202600480360360208110156101ec57600080fd5b81019080803590602001909291905050506106aa565b60405180806020018060200187815260200186151515158152602001858152602001848152602001838103835289818151815260200191508051906020019080838360005b83811015610262578082015181840152602081019050610247565b50505050905090810190601f16801561028f5780820380516001836020036101000a031916815260200191505b50838103825288818151815260200191508051906020019080838360005b838110156102c85780820151818401526020810190506102ad565b50505050905090810190601f1680156102f55780820380516001836020036101000a031916815260200191505b509850505050505050505060405180910390f35b610311610823565b6040518080602001828103825283818151815260200191508051906020019080838360005b83811015610351578082015181840152602081019050610336565b50505050905090810190601f16801561037e5780820380516001836020036101000a031916815260200191505b509250505060405180910390f35b6103b8600480360360208110156103a257600080fd5b8101908080359060200190929190505050610860565b005b61052a600480360360a08110156103d057600080fd5b81019080803590602001906401000000008111156103ed57600080fd5b8201836020820111156103ff57600080fd5b8035906020019184600183028401116401000000008311171561042157600080fd5b91908080601f016020809104026020016040519081016040528093929190818152602001838380828437600081840152601f19601f8201169050808301925050505050505091929192908035906020019064010000000081111561048457600080fd5b82018360208201111561049657600080fd5b803590602001918460018302840111640100000000831117156104b857600080fd5b91908080601f016020809104026020016040519081016040528093929190818152602001838380828437600081840152601f19601f820116905080830192505050505050509192919290803590602001909291908035151590602001909291908035906020019092919050505061090c565b005b60046020528060005260406000206000915090505481565b6000600154905090565b60025481565b60036020528060005260406000206000915090508060000154908060010154908060020160009054906101000a900473ffffffffffffffffffffffffffffffffffffffff16905083565b60008060008381526020019081526020016000209050600081600501541180156105d057508060020154816005015411155b610642576040517f08c379a00000000000000000000000000000000000000000000000000000000081526004018080602001828103825260118152602001807f626564206e6f7420617661696c61626c6500000000000000000000000000000081525060200191505060405180910390fd5b8060050160008154809291906001900391905055507feb24b0938b8fa5a7d53ac9d5950868730e3e044e589135b6e8d2801479e289cf600260008154809291906001019190505583604051808381526020018281526020019250505060405180910390a15050565b6000602052806000526040600020600091509050806000018054600181600116156101000203166002900480601f0160208091040260200160405190810160405280929190818152602001828054600181600116156101000203166002900480156107565780601f1061072b57610100808354040283529160200191610756565b820191906000526020600020905b81548152906001019060200180831161073957829003601f168201915b505050505090806001018054600181600116156101000203166002900480601f0160208091040260200160405190810160405280929190818152602001828054600181600116156101000203166002900480156107f45780601f106107c9576101008083540402835291602001916107f4565b820191906000526020600020905b8154815290600101906020018083116107d757829003601f168201915b5050505050908060020154908060030160009054906101000a900460ff16908060040154908060050154905086565b60606040518060400160405280600781526020017f48656c6c6f212500000000000000000000000000000000000000000000000000815250905090565b600080600083815260200190815260200160002090508060020154816005015411156108f4576040517f08c379a00000000000000000000000000000000000000000000000000000000081526004018080602001828103825260118152602001807f416c6c206265647320617265206672656500000000000000000000000000000081525060200191505060405180910390fd5b80600501600081548092919060010191905055505050565b610914610b12565b6040518060c0016040528087815260200186815260200185815260200184151581526020018381526020018581525090508060008060015481526020019081526020016000206000820151816000019080519060200190610976929190610b4a565b506020820151816001019080519060200190610993929190610b4a565b506040820151816002015560608201518160030160006101000a81548160ff0219169083151502179055506080820151816004015560a082015181600501559050507f54c764eb2ea341c17404d52efae99bdb505bc5debf543017296cab3a398d15ba60016000815480929190600101919050558787878760405180868152602001806020018060200185815260200184151515158152602001838103835287818151815260200191508051906020019080838360005b83811015610a65578082015181840152602081019050610a4a565b50505050905090810190601f168015610a925780820380516001836020036101000a031916815260200191505b50838103825286818151815260200191508051906020019080838360005b83811015610acb578082015181840152602081019050610ab0565b50505050905090810190601f168015610af85780820380516001836020036101000a031916815260200191505b5097505050505050505060405180910390a1505050505050565b6040518060c0016040528060608152602001606081526020016000815260200160001515815260200160008152602001600081525090565b828054600181600116156101000203166002900490600052602060002090601f016020900481019282601f10610b8b57805160ff1916838001178555610bb9565b82800160010185558215610bb9579182015b82811115610bb8578251825591602001919060010190610b9d565b5b509050610bc69190610bca565b5090565b610bec91905b80821115610be8576000816000905550600101610bd0565b5090565b9056fea265627a7a723158205856a450004dfbdac68751fdd53a269424cef981243dbc02df24235aefbcd01664736f6c63430005100032",
  "source": "pragma solidity >=0.5.0 <0.7.0;\n\ncontract Hospitals {\n    event NewHospital(\n        uint256 hospitalId,\n        string name,\n        string city,\n        uint256 noOfBeds,\n        bool isPrivate\n    );\n    event NewBedBooking(uint256 bedId, uint256 hospitalId);\n\n    struct Hospital {\n        string name;\n        string city;\n        uint256 noOfBeds;\n        bool isPrivate;\n        uint256 bedPrice;\n        uint256 bedAvailable;\n    }\n    struct Bed {\n        uint256 bedId;\n        uint256 hospitalId;\n        address name;\n    }\n\n    mapping(uint256 => Hospital) public hospitals;\n    uint256 hospitalId;\n    uint256 public bedId;\n\n    // Hospital[] public hospitalsList;\n\n    mapping(uint256 => Bed) public bedToHospital;\n    mapping(address => uint256) public hospitalBedCount;\n\n    function addHospital(\n        string memory _name,\n        string memory _city,\n        uint256 _noOfBeds,\n        bool _isPrivate,\n        uint256 _bedPrice\n    ) public {\n        Hospital memory hosp = Hospital(\n            _name,\n            _city,\n            _noOfBeds,\n            _isPrivate,\n            _bedPrice,\n            _noOfBeds\n        );\n\n        hospitals[hospitalId] = hosp;\n        emit NewHospital(hospitalId++, _name, _city, _noOfBeds, _isPrivate);\n    }\n\n    function getIds() public returns (uint256) {\n        return hospitalId;\n    }\n\n    function myFunction() public returns (string memory myString) {\n        return \"Hello!%\";\n    }\n\n    function bookOneBed(uint256 _hospitalId) public {\n        Hospital storage hosp = hospitals[_hospitalId];\n        require(\n            hosp.bedAvailable > 0 && hosp.bedAvailable <= hosp.noOfBeds,\n            \"bed not available\"\n        );\n        hosp.bedAvailable--;\n        emit NewBedBooking(bedId++, _hospitalId);\n    }\n\n    function freeBed(uint256 _hospitalId) public {\n        Hospital storage hosp = hospitals[_hospitalId];\n        require(hosp.bedAvailable <= hosp.noOfBeds, \"All beds are free\");\n        hosp.bedAvailable++;\n    }\n}\n",
  "sourcePath": "/Users/sahil/sah2/new/contracts/Hospitals.sol",
  "compiler": {
    "name": "solc",
    "version": "0.5.16+commit.9c3226ce.Emscripten.clang"
  },
  "schemaVersion": "3.2.0",
  "updatedAt": "2020-06-20T20:18:01.445Z",
  "networkType": "ethereum",
  "devdoc": {
    "methods": {}
  },
  "userdoc": {
    "methods": {}
  }
}