{
  "contractName": "Hospitals",
  "abi": [
    {
      "constant": true,
      "inputs": [
        {
          "name": "",
          "type": "uint256"
        }
      ],
      "name": "hospitals",
      "outputs": [
        {
          "name": "name",
          "type": "string"
        },
        {
          "name": "city",
          "type": "string"
        },
        {
          "name": "noOfBeds",
          "type": "uint256"
        },
        {
          "name": "isPrivate",
          "type": "bool"
        },
        {
          "name": "bedPrice",
          "type": "uint256"
        },
        {
          "name": "bedAvailable",
          "type": "uint256"
        }
      ],
      "payable": false,
      "stateMutability": "view",
      "type": "function"
    },
    {
      "constant": true,
      "inputs": [
        {
          "name": "",
          "type": "uint256"
        }
      ],
      "name": "bookedBeds",
      "outputs": [
        {
          "name": "bedId",
          "type": "uint256"
        },
        {
          "name": "hospitalId",
          "type": "uint256"
        },
        {
          "name": "name",
          "type": "address"
        }
      ],
      "payable": false,
      "stateMutability": "view",
      "type": "function"
    },
    {
      "anonymous": false,
      "inputs": [
        {
          "indexed": false,
          "name": "hospitalId",
          "type": "uint256"
        },
        {
          "indexed": false,
          "name": "name",
          "type": "string"
        },
        {
          "indexed": false,
          "name": "city",
          "type": "string"
        },
        {
          "indexed": false,
          "name": "noOfBeds",
          "type": "uint256"
        },
        {
          "indexed": false,
          "name": "isPrivate",
          "type": "bool"
        }
      ],
      "name": "NewHospital",
      "type": "event"
    },
    {
      "anonymous": false,
      "inputs": [
        {
          "indexed": false,
          "name": "bedId",
          "type": "uint256"
        }
      ],
      "name": "NewBedBooking",
      "type": "event"
    },
    {
      "constant": false,
      "inputs": [
        {
          "name": "_name",
          "type": "string"
        },
        {
          "name": "_city",
          "type": "string"
        },
        {
          "name": "_noOfBeds",
          "type": "uint256"
        },
        {
          "name": "_isPrivate",
          "type": "bool"
        },
        {
          "name": "_bedPrice",
          "type": "uint256"
        }
      ],
      "name": "_addHospital",
      "outputs": [],
      "payable": false,
      "stateMutability": "nonpayable",
      "type": "function"
    },
    {
      "constant": false,
      "inputs": [
        {
          "name": "_hospitalId",
          "type": "uint256"
        }
      ],
      "name": "_bookOneBed",
      "outputs": [],
      "payable": false,
      "stateMutability": "nonpayable",
      "type": "function"
    },
    {
      "constant": false,
      "inputs": [
        {
          "name": "_hospitalId",
          "type": "uint256"
        },
        {
          "name": "_bedId",
          "type": "uint256"
        }
      ],
      "name": "_freeBed",
      "outputs": [],
      "payable": false,
      "stateMutability": "nonpayable",
      "type": "function"
    }
  ],
  "bytecode": "0x608060405234801561001057600080fd5b50610bb4806100206000396000f30060806040526004361061006d576000357c0100000000000000000000000000000000000000000000000000000000900463ffffffff1680630e4e79ea1461007257806354c47bcc146101415780635c8ce40c1461017857806381dc6fd2146101a5578063c5078420146102d7575b600080fd5b34801561007e57600080fd5b5061013f600480360381019080803590602001908201803590602001908080601f0160208091040260200160405190810160405280939291908181526020018383808284378201915050505050509192919290803590602001908201803590602001908080601f01602080910402602001604051908101604052809392919081815260200183838082843782019150505050505091929192908035906020019092919080351515906020019092919080359060200190929190505050610352565b005b34801561014d57600080fd5b5061017660048036038101908080359060200190929190803590602001909291905050506105ad565b005b34801561018457600080fd5b506101a36004803603810190808035906020019092919050505061073a565b005b3480156101b157600080fd5b506101d0600480360381019080803590602001909291905050506108e7565b60405180806020018060200187815260200186151515158152602001858152602001848152602001838103835289818151815260200191508051906020019080838360005b83811015610230578082015181840152602081019050610215565b50505050905090810190601f16801561025d5780820380516001836020036101000a031916815260200191505b50838103825288818151815260200191508051906020019080838360005b8381101561029657808201518184015260208101905061027b565b50505050905090810190601f1680156102c35780820380516001836020036101000a031916815260200191505b509850505050505050505060405180910390f35b3480156102e357600080fd5b5061030260048036038101908080359060200190929190505050610a60565b604051808481526020018381526020018273ffffffffffffffffffffffffffffffffffffffff1673ffffffffffffffffffffffffffffffffffffffff168152602001935050505060405180910390f35b61035a610aaa565b60c06040519081016040528087815260200186815260200185815260200184151581526020018381526020018581525090503360046000600254815260200190815260200160002060006101000a81548173ffffffffffffffffffffffffffffffffffffffff021916908373ffffffffffffffffffffffffffffffffffffffff1602179055508060008060025481526020019081526020016000206000820151816000019080519060200190610411929190610ae3565b50602082015181600101908051906020019061042e929190610ae3565b506040820151816002015560608201518160030160006101000a81548160ff0219169083151502179055506080820151816004015560a082015181600501559050507f54c764eb2ea341c17404d52efae99bdb505bc5debf543017296cab3a398d15ba60026000815480929190600101919050558787878760405180868152602001806020018060200185815260200184151515158152602001838103835287818151815260200191508051906020019080838360005b838110156105005780820151818401526020810190506104e5565b50505050905090810190601f16801561052d5780820380516001836020036101000a031916815260200191505b50838103825286818151815260200191508051906020019080838360005b8381101561056657808201518184015260208101905061054b565b50505050905090810190601f1680156105935780820380516001836020036101000a031916815260200191505b5097505050505050505060405180910390a1505050505050565b6000806001600084815260200190815260200160002091503373ffffffffffffffffffffffffffffffffffffffff168260020160009054906101000a900473ffffffffffffffffffffffffffffffffffffffff1673ffffffffffffffffffffffffffffffffffffffff1614151561068c576040517f08c379a00000000000000000000000000000000000000000000000000000000081526004018080602001828103825260178152602001807f4e6f742062656420626f6f6b6564206279206f776e657200000000000000000081525060200191505060405180910390fd5b60008085815260200190815260200160002090508060020154816005015411151515610720576040517f08c379a00000000000000000000000000000000000000000000000000000000081526004018080602001828103825260118152602001807f416c6c206265647320617265206672656500000000000000000000000000000081525060200191505060405180910390fd5b806005016000815480929190600101919050555050505050565b600080600083815260200190815260200160002090506000816005015411801561076c57508060020154816005015411155b15156107e0576040517f08c379a00000000000000000000000000000000000000000000000000000000081526004018080602001828103825260118152602001807f626564206e6f7420617661696c61626c6500000000000000000000000000000081525060200191505060405180910390fd5b80600501600081548092919060019003919050555060606040519081016040528060035481526020018381526020013373ffffffffffffffffffffffffffffffffffffffff16815250600160006003548152602001908152602001600020600082015181600001556020820151816001015560408201518160020160006101000a81548173ffffffffffffffffffffffffffffffffffffffff021916908373ffffffffffffffffffffffffffffffffffffffff1602179055509050507f1fbc0da5d4e09ae1e0045316aa3cb0e972ba1dcff4413fe031a617a580a31a1c60036000815480929190600101919050556040518082815260200191505060405180910390a15050565b6000602052806000526040600020600091509050806000018054600181600116156101000203166002900480601f0160208091040260200160405190810160405280929190818152602001828054600181600116156101000203166002900480156109935780601f1061096857610100808354040283529160200191610993565b820191906000526020600020905b81548152906001019060200180831161097657829003601f168201915b505050505090806001018054600181600116156101000203166002900480601f016020809104026020016040519081016040528092919081815260200182805460018160011615610100020316600290048015610a315780601f10610a0657610100808354040283529160200191610a31565b820191906000526020600020905b815481529060010190602001808311610a1457829003601f168201915b5050505050908060020154908060030160009054906101000a900460ff16908060040154908060050154905086565b60016020528060005260406000206000915090508060000154908060010154908060020160009054906101000a900473ffffffffffffffffffffffffffffffffffffffff16905083565b60c06040519081016040528060608152602001606081526020016000815260200160001515815260200160008152602001600081525090565b828054600181600116156101000203166002900490600052602060002090601f016020900481019282601f10610b2457805160ff1916838001178555610b52565b82800160010185558215610b52579182015b82811115610b51578251825591602001919060010190610b36565b5b509050610b5f9190610b63565b5090565b610b8591905b80821115610b81576000816000905550600101610b69565b5090565b905600a165627a7a72305820fd69f5c03963417ec1f28fb3b218ebc638f47a1fa7fa7af639d938322b13c4b60029",
  "source": "pragma solidity >=0.4.0 <0.5.0;\n\ncontract Hospitals {\n    event NewHospital(\n        uint256 hospitalId,\n        string name,\n        string city,\n        uint256 noOfBeds,\n        bool isPrivate\n    );\n    event NewBedBooking(uint256 bedId);\n\n    struct Hospital {\n        string name;\n        string city;\n        uint256 noOfBeds;\n        bool isPrivate;\n        uint256 bedPrice;\n        uint bedAvailable;\n    }\n    struct Bed {\n        uint256 bedId; uint256 hospitalId; address name;\n    }\n\n    mapping(uint256 => Hospital) public hospitals;\n    mapping(uint256 => Bed) public bookedBeds;\n\n    uint256 hospitalId;\n    uint256 bedId;\n\n    // Hospital[] public hospitalsList;\n    mapping(uint => address) hospitalToOwner;\n\n    function _addHospital(\n        string memory _name,\n        string memory _city,\n        uint256 _noOfBeds,\n        bool _isPrivate,\n        uint _bedPrice\n    ) public {\n        Hospital memory hosp = Hospital(_name, _city, _noOfBeds, _isPrivate, _bedPrice, _noOfBeds);\n        hospitalToOwner[hospitalId] = msg.sender;\n        hospitals[hospitalId] = hosp;\n        emit NewHospital(hospitalId++, _name, _city, _noOfBeds, _isPrivate);\n    }\n    \n    function _bookOneBed(uint _hospitalId) public {\n        Hospital storage hosp = hospitals[_hospitalId];\n        require(hosp.bedAvailable > 0 && hosp.bedAvailable<=hosp.noOfBeds , \"bed not available\");\n        hosp.bedAvailable--;\n        bookedBeds[bedId] = Bed(bedId, _hospitalId, msg.sender);\n        emit NewBedBooking(bedId++);\n    }\n\n    function _freeBed(uint _hospitalId, uint _bedId ) public {\n        Bed storage bed = bookedBeds[_bedId];\n        require(bed.name ==msg.sender, \"Not bed booked by owner\");\n        Hospital storage hosp = hospitals[_hospitalId];\n        require(hosp.bedAvailable<=hosp.noOfBeds , \"All beds are free\");\n        hosp.bedAvailable++;\n    }\n}",
  "sourcePath": "/Users/SKDFi/SK/Github/get-a-bed/contracts/Hospitals.sol",
  "compiler": {
    "name": "solc",
    "version": "0.4.24+commit.e67f0147.Emscripten.clang"
  },
  "schemaVersion": "3.2.4",
  "updatedAt": "2020-09-07T18:37:39.570Z",
  "devdoc": {
    "methods": {}
  },
  "userdoc": {
    "methods": {}
  }
}